{
    "_format": "hh-sol-artifact-1",
    "contractName": "SendMoney",
    "sourceName": "contracts/genContractForPay.sol",
    "abi": [
        {
            "inputs": [],
            "stateMutability": "nonpayable",
            "type": "constructor"
        },
        {
            "inputs": [],
            "name": "balanceReceived",
            "outputs": [
                {
                    "internalType": "uint256",
                    "name": "",
                    "type": "uint256"
                }
            ],
            "stateMutability": "view",
            "type": "function"
        },
        {
            "inputs": [],
            "name": "getBalance",
            "outputs": [
                {
                    "internalType": "uint256",
                    "name": "",
                    "type": "uint256"
                }
            ],
            "stateMutability": "view",
            "type": "function"
        },
        {
            "inputs": [],
            "name": "getBalanceSender",
            "outputs": [
                {
                    "internalType": "uint256",
                    "name": "",
                    "type": "uint256"
                }
            ],
            "stateMutability": "view",
            "type": "function"
        },
        {
            "inputs": [],
            "name": "owner",
            "outputs": [
                {
                    "internalType": "address",
                    "name": "",
                    "type": "address"
                }
            ],
            "stateMutability": "view",
            "type": "function"
        },
        {
            "inputs": [],
            "name": "receiveMoney",
            "outputs": [],
            "stateMutability": "payable",
            "type": "function"
        },
        {
            "inputs": [
                {
                    "internalType": "address payable",
                    "name": "reviewer",
                    "type": "address"
                },
                {
                    "internalType": "uint256",
                    "name": "value",
                    "type": "uint256"
                }
            ],
            "name": "withdrawMoney",
            "outputs": [],
            "stateMutability": "nonpayable",
            "type": "function"
        }
    ],
    "bytecode": "0x608060405234801561001057600080fd5b5033600160006101000a81548173ffffffffffffffffffffffffffffffffffffffff021916908373ffffffffffffffffffffffffffffffffffffffff16021790555061067a806100616000396000f3fe6080604052600436106100555760003560e01c806312065fe01461005a57806352a90c42146100855780636d26ec18146100b05780638da5cb5b146100ba578063a4bbbd2d146100e5578063f274c89714610110575b600080fd5b34801561006657600080fd5b5061006f610139565b60405161007c919061049f565b60405180910390f35b34801561009157600080fd5b5061009a610180565b6040516100a7919061049f565b60405180910390f35b6100b8610186565b005b3480156100c657600080fd5b506100cf6101a0565b6040516100dc9190610434565b60405180910390f35b3480156100f157600080fd5b506100fa6101c6565b604051610107919061049f565b60405180910390f35b34801561011c57600080fd5b506101376004803603810190610132919061037e565b6101e5565b005b600061017a6040518060400160405280600f81526020017f7468652062616c616e63652069733a00000000000000000000000000000000008152504761028f565b47905090565b60005481565b3460008082825461019791906104d6565b92505081905550565b600160009054906101000a900473ffffffffffffffffffffffffffffffffffffffff1681565b60003373ffffffffffffffffffffffffffffffffffffffff1631905090565b803373ffffffffffffffffffffffffffffffffffffffff16311161023e576040517f08c379a00000000000000000000000000000000000000000000000000000000081526004016102359061047f565b60405180910390fd5b60008290508073ffffffffffffffffffffffffffffffffffffffff166108fc839081150290604051600060405180830381858888f19350505050158015610289573d6000803e3d6000fd5b50505050565b61032782826040516024016102a592919061044f565b6040516020818303038152906040527f9710a9d0000000000000000000000000000000000000000000000000000000007bffffffffffffffffffffffffffffffffffffffffffffffffffffffff19166020820180517bffffffffffffffffffffffffffffffffffffffffffffffffffffffff838183161783525050505061032b565b5050565b60008151905060006a636f6e736f6c652e6c6f679050602083016000808483855afa5050505050565b60008135905061036381610616565b92915050565b6000813590506103788161062d565b92915050565b6000806040838503121561039157600080fd5b600061039f85828601610354565b92505060206103b085828601610369565b9150509250929050565b6103c38161052c565b82525050565b60006103d4826104ba565b6103de81856104c5565b93506103ee81856020860161057a565b6103f7816105dc565b840191505092915050565b600061040f6014836104c5565b915061041a826105ed565b602082019050919050565b61042e81610570565b82525050565b600060208201905061044960008301846103ba565b92915050565b6000604082019050818103600083015261046981856103c9565b90506104786020830184610425565b9392505050565b6000602082019050818103600083015261049881610402565b9050919050565b60006020820190506104b46000830184610425565b92915050565b600081519050919050565b600082825260208201905092915050565b60006104e182610570565b91506104ec83610570565b9250827fffffffffffffffffffffffffffffffffffffffffffffffffffffffffffffffff03821115610521576105206105ad565b5b828201905092915050565b600061053782610550565b9050919050565b600061054982610550565b9050919050565b600073ffffffffffffffffffffffffffffffffffffffff82169050919050565b6000819050919050565b60005b8381101561059857808201518184015260208101905061057d565b838111156105a7576000848401525b50505050565b7f4e487b7100000000000000000000000000000000000000000000000000000000600052601160045260246000fd5b6000601f19601f8301169050919050565b7f496e73756666696369656e742062616c616e6365000000000000000000000000600082015250565b61061f8161053e565b811461062a57600080fd5b50565b61063681610570565b811461064157600080fd5b5056fea264697066735822122076592868d25b033e71e29baef82ac7e01887680c501341caa252a8f208d725ff64736f6c63430008010033",
    "linkReferences": {},
    "deployedLinkReferences": {}
}